{
  "_format": "hh-sol-artifact-1",
  "contractName": "WavePortal",
  "sourceName": "contracts/WavePortal.sol",
  "abi": [
    {
      "inputs": [],
      "stateMutability": "nonpayable",
      "type": "constructor"
    },
    {
      "inputs": [],
      "name": "getAllWavers",
      "outputs": [
        {
          "internalType": "address[]",
          "name": "",
          "type": "address[]"
        }
      ],
      "stateMutability": "view",
      "type": "function"
    },
    {
      "inputs": [],
      "name": "getTotalWaves",
      "outputs": [
        {
          "internalType": "uint256",
          "name": "",
          "type": "uint256"
        }
      ],
      "stateMutability": "view",
      "type": "function"
    },
    {
      "inputs": [],
      "name": "wave",
      "outputs": [],
      "stateMutability": "nonpayable",
      "type": "function"
    }
  ],
  "bytecode": "0x608060405234801561001057600080fd5b506100596040518060400160405280601481526020017f68692c206e69636520746f206d65657420796f7500000000000000000000000081525061005e60201b6102221760201c565b6101e1565b6100fa81604051602401610072919061015f565b6040516020818303038152906040527f41304fac000000000000000000000000000000000000000000000000000000007bffffffffffffffffffffffffffffffffffffffffffffffffffffffff19166020820180517bffffffffffffffffffffffffffffffffffffffffffffffffffffffff83818316178352505050506100fd60201b60201c565b50565b60008151905060006a636f6e736f6c652e6c6f679050602083016000808483855afa5050505050565b600061013182610181565b61013b818561018c565b935061014b81856020860161019d565b610154816101d0565b840191505092915050565b600060208201905081810360008301526101798184610126565b905092915050565b600081519050919050565b600082825260208201905092915050565b60005b838110156101bb5780820151818401526020810190506101a0565b838111156101ca576000848401525b50505050565b6000601f19601f8301169050919050565b610747806101f06000396000f3fe608060405234801561001057600080fd5b50600436106100415760003560e01c8063117c5564146100465780636fe15b44146100645780639a2cdc081461006e575b600080fd5b61004e61008c565b60405161005b91906104f8565b60405180910390f35b61006c61011a565b005b6100766101d7565b604051610083919061059c565b60405180910390f35b6060600180548060200260200160405190810160405280929190818152602001828054801561011057602002820191906000526020600020905b8160009054906101000a900473ffffffffffffffffffffffffffffffffffffffff1673ffffffffffffffffffffffffffffffffffffffff16815260200190600101908083116100c6575b5050505050905090565b600160008082825461012c919061060c565b925050819055506001339080600181540180825580915050600190039060005260206000200160009091909190916101000a81548173ffffffffffffffffffffffffffffffffffffffff021916908373ffffffffffffffffffffffffffffffffffffffff1602179055506101d56040518060400160405280601381526020017f25732c20686173207761766564206174206d6500000000000000000000000000815250336102bb565b565b600061021a6040518060400160405280601c81526020017f43757272656e7420746f74616c207761766520636f756e743a20257300000000815250600054610357565b600054905090565b6102b881604051602401610236919061051a565b6040516020818303038152906040527f41304fac000000000000000000000000000000000000000000000000000000007bffffffffffffffffffffffffffffffffffffffffffffffffffffffff19166020820180517bffffffffffffffffffffffffffffffffffffffffffffffffffffffff83818316178352505050506103f3565b50565b61035382826040516024016102d192919061053c565b6040516020818303038152906040527f319af333000000000000000000000000000000000000000000000000000000007bffffffffffffffffffffffffffffffffffffffffffffffffffffffff19166020820180517bffffffffffffffffffffffffffffffffffffffffffffffffffffffff83818316178352505050506103f3565b5050565b6103ef828260405160240161036d92919061056c565b6040516020818303038152906040527f9710a9d0000000000000000000000000000000000000000000000000000000007bffffffffffffffffffffffffffffffffffffffffffffffffffffffff19166020820180517bffffffffffffffffffffffffffffffffffffffffffffffffffffffff83818316178352505050506103f3565b5050565b60008151905060006a636f6e736f6c652e6c6f679050602083016000808483855afa5050505050565b60006104288383610434565b60208301905092915050565b61043d81610662565b82525050565b61044c81610662565b82525050565b600061045d826105c7565b61046781856105ea565b9350610472836105b7565b8060005b838110156104a357815161048a888261041c565b9750610495836105dd565b925050600181019050610476565b5085935050505092915050565b60006104bb826105d2565b6104c581856105fb565b93506104d581856020860161069e565b6104de81610700565b840191505092915050565b6104f281610694565b82525050565b600060208201905081810360008301526105128184610452565b905092915050565b6000602082019050818103600083015261053481846104b0565b905092915050565b6000604082019050818103600083015261055681856104b0565b90506105656020830184610443565b9392505050565b6000604082019050818103600083015261058681856104b0565b905061059560208301846104e9565b9392505050565b60006020820190506105b160008301846104e9565b92915050565b6000819050602082019050919050565b600081519050919050565b600081519050919050565b6000602082019050919050565b600082825260208201905092915050565b600082825260208201905092915050565b600061061782610694565b915061062283610694565b9250827fffffffffffffffffffffffffffffffffffffffffffffffffffffffffffffffff03821115610657576106566106d1565b5b828201905092915050565b600061066d82610674565b9050919050565b600073ffffffffffffffffffffffffffffffffffffffff82169050919050565b6000819050919050565b60005b838110156106bc5780820151818401526020810190506106a1565b838111156106cb576000848401525b50505050565b7f4e487b7100000000000000000000000000000000000000000000000000000000600052601160045260246000fd5b6000601f19601f830116905091905056fea26469706673582212209eddc5243b7ab009d9ef1bce05ccc2867eda035156dc59a4d655dd1e1d910f5264736f6c63430008040033",
  "linkReferences": {},
  "deployedLinkReferences": {}
}